:100000001CC140C13FC13EC13DC1E7C23BC13AC175
:1000100039C138C137C136C135C134C133C100001F
:100020000000370000000000380002020202020255
:100030000102040810200103000004003C0AFCC572
:10004000F54AC1014141FD8DDFB237BDDC0607F045
:100050000DEEE9ED1DA7939F2E47464B30F0C1C32F
:10006000C7B6F84A118B076DCDF7929E7C6BF6D61A
:10007000EF9258D3491372BF6D6AEE1602B08E88A4
:1000800097ED5EBF41880111B5074BF900000000F4
:100090000008080800080E1F151F150000000010BA
:1000A00000000008180000040C1C0002060E1E01CF
:1000B00003070F1F040E0A0A0E1100000200000AB7
:1000C00000000404001100000008000A0000001FE6
:1000D000000000000400110103060C080E111511A8
:1000E0000E0C1404041F0E1106081F1E0107011E2A
:1000F00002060A1F021F101E011E0F101F110E1FE5
:10010000010204040E110E110E0E111F011E150026
:100110001500150A150A150A0204080402150A1525
:100120000A1508040204080E110600041B11001130
:100130001B0E111F11111E111E111E0E1110110E7A
:100140001E1111111E0F101E100F1E101C10100F6B
:100150001017110E11111F11111F0404041F1F028B
:1001600012120C1214181412101010101E0E151565
:10017000111111191513110E1111110E1E111E104E
:10018000100E1115120D1E111E11110F101F011E40
:100190001F04040404111111110E1111110A04118C
:1001A0001115150E110A040A11110A0404041F0284
:1001B00004081F1B150A151B10180C06020010005E
:1001C0000000040A1100000000080000131A040BCC
:1001D00019190B041A130404040404000000040099
:1001E0000000000004110A110A110A110A110A0E76
:1001F0001C181C0E0E1F1F1F0E0000020000000422
:100200000E0400000A040A0000040A040004041B8F
:100210000404040A110A0411040E0411110A000A4C
:100220001111000000111B0E040E1B001B0E1B0001
:100230000001000000001404650411241FBECFE576
:10024000D2E0DEBFCDBF20E0A6E6B0E001C01D9247
:10025000A838B207E1F710E0A0E6B0E0E8EDFBE077
:1002600002C005900D92A636B107D9F711E0CCE196
:10027000D1E003C02197FE0171D3CB31D107D1F773
:10028000F6D19EC4BDCE3FB7F89480916B0090919B
:100290006C00A0916D00B0916E0022B708B601FE0F
:1002A00005C02F3F19F00196A11DB11D3FBFBA2F08
:1002B000A92F982F8827BC01CD01620F711D811DC8
:1002C000911D43E0660F771F881F991F4A95D1F74C
:1002D0000895CF92DF92EF92FF92CF93DF93D3DF17
:1002E000EB0184EFC82EDD24D394E12CF12CCBDF7D
:1002F0006C1B7D0B683E7340A0F0C114D104E10477
:10030000F10439F4DF91CF91FF90EF90DF90CF901F
:10031000089581E0C81AD108E108F108C851DC4FFE
:10032000E6CFC114D104E104F10409F7EBCFCF9279
:10033000DF92EF92FF920F931F93CF93DF9300D042
:1003400000D000D01F92CDB7DEB78091770090919A
:100350007800892B09F49FC0C0907D00D0907E006A
:10036000E0907F00F09080008EDF6C157D058E059B
:100370009F0548F488DF60937D0070937E00809332
:100380007F00909380007FDF00917D0010917E00C0
:1003900020917F0030918000601B710B820B930BCA
:1003A0006C32714081059105B8F2F8948091720029
:1003B000909173009A838983A0917700B09178001F
:1003C000FD0131968C918F831B8298B380918300BD
:1003D000982B9E8398B3809589238D838D818C8300
:1003E0008F8187FF02C08E818C835E816D814F81FA
:1003F0003C812B8189819A8158BB262F38BB00C054
:1004000046FD252F68BB00C058BB362F28BB00C057
:1004100045FD352F68BB00C058BB262F38BB00C038
:1004200044FD252F68BB00C058BB362F28BB00C039
:1004300043FD352F68BB00C058BB262F38BB00C01A
:1004400042FD252F68BB00C058BB362F28BB00C01B
:1004500041FD352F68BB00C058BB262F38BB00C0FC
:1004600040FD252F68BB019758BB362F28BB419113
:1004700047FD352F68BB01F64F833C832B839A835E
:100480008983789400DF60937D0070937E00809371
:100490007F009093800027960FB6F894DEBF0FBEC2
:1004A000CDBFDF91CF911F910F91FF90EF90DF9023
:1004B000CF90089587FF09C08F7771F1813071F176
:1004C000823071F1833071F18FEF90E0FC01EA5CD2
:1004D000FF4F3491FC01E05DFF4F2491FC01E65D8C
:1004E000FF4FE491EE23B9F0332329F03130E1F4EA
:1004F0008AB58F778ABDF0E0EE0FFF1FEC5DFF4FEE
:10050000A591B4918FB7611120C0F894EC9120951A
:100510002E232C938FBF089585E0D7CF82E0D5CFCF
:1005200084E0D3CF83E0D1CF323019F48AB58F7D08
:10053000E1CF333021F480B78F7D80BFDCCF343002
:10054000D1F68CB58F7D8CBDD6CFF894EC912E2B47
:10055000E0CFCF93DF9387FF09C08F7779F18130A8
:1005600079F1823079F1833079F18FEF90E0FC01FD
:10057000E05DFF4F2491865D9F4FFC0184918823AD
:10058000D1F090E0880F991FFC01E25EFF4FA5912A
:10059000B491FC01EC5DFF4FC591D491611116C07F
:1005A0009FB7F8948C91E22FE0958E238C9328814D
:1005B000E223E8839FBFDF91CF91089585E0D6CFF6
:1005C00082E0D4CF84E0D2CF83E0D0CF8FB7F8944D
:1005D000EC91E22BEC938FBFEECF1F920F920FB6F0
:1005E0000F9211242F933F938F939F93AF93BF93B9
:1005F0008091670090916800A0916900B0916A00B5
:100600003091660026E0230F2D3768F129E8230F8B
:100610000396A11DB11D20936600809367009093FF
:100620006800A0936900B0936A0080916B0090917C
:100630006C00A0916D00B0916E000196A11DB11DDE
:1006400080936B0090936C00A0936D00B0936E004C
:10065000BF91AF919F918F913F912F910F900FBEBE
:100660000F901F9018950296A11DB11DD4CF83E065
:100670008ABD83BF789489B7826089BF80E48CBDCE
:100680008FEF8DBD87EC80BF86E886B961E082E0A0
:1006900060DF61E082E00EDF809174009091750070
:1006A00097FD06C061E055DF60E08091740002DFD5
:1006B00081E080936F003BDE60917600633311F13F
:1006C000C0917700D0917800615030E020E029F0AF
:1006D00070E08FEF92E32ED19B01FE0140917200FA
:1006E00050917300CF018C1B9D0B8417950738F434
:1006F000808190E0B9010DD190833196EFCF83E3F3
:1007000080937600C7E0D0E0FE01EB57FF4F1491D5
:10071000CE01E9D0181719F0612FCE01ECD0219647
:10072000C03B81E0D80781F7FE01E457F140149106
:10073000CE01D9D0181719F0612FCE01DCD0219647
:10074000C115E2E0DE0781F7C7E0D0E011E0CE019D
:10075000CAD0FE01EB57FF4FE491E81310E0219659
:10076000C03BF1E0DF0799F7CE01BDD0FE01E457B1
:10077000F140E491E81310E02196C11582E0D8071A
:1007800099F7112309F44FC0409172005091730002
:1007900070E060E080917700909178000AD2C3E029
:1007A000D0E08091700090917100892B51F180917F
:1007B00076002FEF882329F090E06FEF70E0A9D04A
:1007C000292FE0917C008091770090917800309102
:1007D0007900E31721F0E80FF92FF11D1082E09165
:1007E0007900E80FF92FF11D1082E0917A00E80FEF
:1007F000F92FF11D208320917B00820F911DFC01B8
:10080000108295DD66DD409172005091730070E0BA
:1008100060E08091770090917800CBD188DD59DD40
:10082000219709F0BECFFFCF10926F001092760093
:1008300010927D0010927E0010927F001092800036
:1008400081E080937C008093790010927A0082E0AE
:1008500080937B008BE490E0909373008093720010
:1008600083D09093780080937700009729F12BE450
:10087000FC0111922A95E9F789E190E090937100CB
:100880008093700083E090E09093750080937400F3
:1008900080916F00882331F061E083E05ADE60E0F0
:1008A00083E008DE88E390E09093820080938100EB
:1008B00088E0809383000895109273001092720074
:1008C0001092710010927000DDCF809177009091AE
:1008D0007800E6D0809174009091750097FD02C079
:1008E00060E037CE0895E199FECF9FBB8EBBE09AC2
:1008F00099278DB30895262FE199FECF1CBA9FBB8F
:100900008EBB2DBB0FB6F894E29AE19A0FBE01960A
:1009100008950024552704C0080E591F880F991FF9
:10092000009729F076956795B8F37105B9F7802D92
:10093000952F0895AA1BBB1B51E107C0AA1FBB1F1F
:10094000A617B70710F0A61BB70B881F991F5A955B
:10095000A9F780959095BC01CD010895EE0FFF1F7A
:100960000590F491E02D09940F931F93CF93DF939B
:100970008230910510F482E090E0E0918600F091E1
:10098000870030E020E0B0E0A0E0309799F4211536
:10099000310509F44AC0281B390B24303105D8F53C
:1009A0008A819B816115710589F1FB0193838283A3
:1009B000FE0111C0408151810281138148175907FE
:1009C000E0F04817590799F4109761F012960C93CC
:1009D000129713961C933296CF01DF91CF911F91FE
:1009E0000F9108950093860010938700F4CF21158E
:1009F000310551F04217530738F0A901DB019A0184
:100A0000BD01DF01F801C1CFEF01F9CF909387005D
:100A100080938600CDCFFE01E20FF31F8193919367
:100A20002250310939832883D7CF20918400309117
:100A30008500232B41F420916200309163003093B4
:100A40008500209384002091600030916100211581
:100A5000310541F42DB73EB74091640050916500D7
:100A6000241B350BE0918400F0918500E217F30719
:100A7000A0F42E1B3F0B2817390778F0AC014E5F0E
:100A80005F4F2417350748F04E0F5F1F50938500C6
:100A900040938400819391939FCFF0E0E0E09CCF5E
:100AA000CF93DF930097E9F0FC0132971382128213
:100AB000A0918600B0918700ED0130E020E0109712
:100AC000A1F420813181820F931F20918400309105
:100AD00085002817390709F061C0F0938500E0937D
:100AE0008400DF91CF910895EA01CE17DF07E8F582
:100AF0004A815B819E0141155105B1F7E901FB83F4
:100B0000EA8349915991C40FD51FEC17FD0761F491
:100B1000808191810296840F951FE90199838883D2
:100B2000828193819B838A83F0E0E0E012968D912D
:100B30009C9113970097B9F52D913C911197CD0198
:100B40000296820F931F2091840030918500281710
:100B5000390739F6309751F51092870010928600C8
:100B6000B0938500A0938400BCCFD383C28340811F
:100B70005181840F951FC817D90761F44E5F5F4FED
:100B800088819981480F591F518340838A819B81B5
:100B9000938382832115310509F0B0CFF09387004C
:100BA000E09386009ECFFD01DC01C0CF138212824C
:100BB000D7CFDC0101C06D9341505040E0F708955C
:100BC00011E0CCE1D1E003C0FE01C8DE2196CD31B9
:080BD000D107D1F7F894FFCF23
:060BD8000000880080000F
:00000001FF
