:10000000C9C1EDC132CAEBC1EAC1D6C9E8C1E7C175
:10001000E6C1E5C1E4C1E3C119CAE1C1E0C1676855
:10002000006A6B6C6D6E6F707100606100656600D8
:10003000292A2B2C2E003A403D5B3D3B0072730079
:100040002200808386898C8F9295989B9EA2A5A77B
:10005000AAADB0B3B6B9BCBEC1C4C6C9CBCED0D3AD
:10006000D5D7DADCDEE0E2E4E6E8EAEBEDEEF0F14B
:10007000F3F4F5F6F8F9FAFAFBFCFDFDFEFEFEFFDF
:10008000FFFFFFFFFFFFFEFEFEFDFDFCFBFAFAF99E
:10009000F8F6F5F4F3F1F0EEEDEBEAE8E6E4E2E091
:1000A000DEDCDAD7D5D3D0CECBC9C6C4C1BEBCB98D
:1000B000B6B3B0ADAAA7A5A29E9B9895928F8C8946
:1000C0008683807C797673706D6A6764615D5A5847
:1000D00055524F4C494643413E3B393634312F2C23
:1000E0002A282523211F1D1B1917151412110F0E65
:1000F0000C0B0A09070605050403020201010100B1
:1001000000000000000001010102020304050506D1
:1001100007090A0B0C0E0F1112141517191B1D1FBE
:10012000212325282A2C2F313436393B3E414346A2
:10013000494C4F5255585A5D6164676A6D707376C9
:10014000797C5733415259434F44335220004D4537
:1001500052525920584D4153212000484150505986
:10016000204E45572059454152212000323032312E
:10017000204654572120000000000000000000002D
:10018000000000000000000000000000000000016E
:10019000010101010101010101010102020202024A
:1001A0000202020303030303030404040405050518
:1001B0000505060606060707070808080909090ACB
:1001C0000A0A0B0B0B0C0C0D0D0D0E0E0F0F101061
:1001D00011111212131314141515161617181819D5
:1001E000191A1B1B1C1D1D1E1F1F20212222232428
:1001F0002526262728292A2A2B2C2D2E2F3031324E
:10020000333435363738393A3B3C3D3E3F40414246
:100210004445464748494B4C4D4E50515254555613
:1002200058595A5C5D5E606163646667696A6C6DAB
:100230006F7072737577787A7C7D7F81828486880F
:10024000898B8D8F91929496989A9C9EA0A2A4A639
:10025000A8AAACAEB0B2B4B6B8BABCBFC1C3C5C729
:10026000CACCCED1D3D5D7DADCDFE1E3E6E8EBEDDB
:10027000F0F2F5F7FAFCFF74696364635F5D005C9C
:100280002D2F62005D5F636463697400622F2D5CD3
:10029000000000000000000000000000000000005E
:1002A0000000000000000000000101010101010147
:1002B0000101010101020202020202020203030320
:1002C00003030304040404050505050506060606E4
:1002D0000707070808080909090A0A0A0B0B0B0C8B
:1002E0000C0D0D0D0E0E0F0F101011111212131315
:1002F00014141515161617181819191A1B1B1C1D7E
:100300001D1E1F1F202122222324252626272829BF
:100310002A2A2B2C2D2E2F303132333435363738D4
:10032000393A3B3C3D3E3F404142444546474849BF
:100330004B4C4D4E50515254555658595A5C5D5E77
:10034000606163646667696A6C6D6F7072737577FC
:10035000787A7C7D7F8182848688898B8D8F91924B
:100360009496989A9C9EA0A2A4A6A8AAACAEB0B25D
:10037000B4B6B8BABCBFC1C3C5C7CACCCED1D3D539
:10038000D7DADCDFE1E3E6E8EBEDF0F2F5F7FAFCD3
:10039000FF00BA0C11241FBECFE5D2E0DEBFCDBFF7
:1003A00011E0A0E6B0E0E4E8FCE102C005900D92A7
:1003B000AC33B107D9F721E0ACE3B1E001C01D9245
:1003C000A73DB207E1F711E0CAECD1E003C02197E5
:1003D000FE0149DCC93CD107D1F758D851CC10CE29
:1003E0004F925F926F927F928F929F92AF92BF9245
:1003F000CF92DF92EF92FF92E82F6A017B0180910A
:10040000C901E81760F5270166247724442D8D2C57
:100410009E2CAF2CBB24A82D3C2D2091CD01222356
:1004200081F030E0842D90E0B901D9DB492F882D8F
:1004300090E0B901D4DBA92F8C2D90E0B901CFDB7E
:10044000392F8E2F90E063E070E0C9DBE091CE01A0
:10045000F091CF01E80FF91FA08341833283FF9011
:10046000EF90DF90CF90BF90AF909F908F907F9054
:100470006F905F904F900895CF92DF92EF92FF922E
:100480000F931F93BC0190E080E02AEF35E040E03D
:1004900050E045DBDC01CB019058AF4FBF4FCD01A1
:1004A000BB2797FDB095AB2F8E3F21E0920758F503
:1004B000282F8F3F910508F445C06EEF681B862FEB
:1004C00030E02FEF682F70E090E080E0CB017727DD
:1004D0006627D12CF12CE12C632B7D298E299F29B5
:1004E000022F10E030E020E0322F212F102F0027C4
:1004F000602B712B822B932B1F910F91FF90EF900C
:10050000DF90CF9008958C3F23E0920768F48D3FF1
:1005100022E0920728F432E0380F2FEF80E0D2CFAC
:100520002CEF281B3FEFFACF8A3F25E0920769F0B6
:100530003AEF381B8B3F24E0920740F48C5F3FEF8B
:1005400020E0C0CF30E08FEFBDCF30E020E0FBCF28
:100550009091CA01891708F4982F9093C901892FA7
:1005600090E063E070E03BDB9093CC018093CB01A3
:1005700008953FB7F8948091B5019091B601A0918C
:10058000B701B091B80122B708B601FE05C02F3FF0
:1005900019F00196A11DB11D3FBFBA2FA92F982FA9
:1005A0008827BC01CD01620F711D811D911D43E0A3
:1005B000660F771F881F991F4A95D1F70895CF932B
:1005C000DF9300D000D000D01F92CDB7DEB780916E
:1005D000CE019091CF01892B09F47CC0CADF209114
:1005E000D0013091D101621B730B6C327140B0F3BA
:1005F000F8948091CB019091CC019A838983A0914A
:10060000CE01B091CF01FD0131968C918F831B8279
:1006100098B38091D601982B9E8398B380958923B7
:100620008D838D818C838F8187FF02C08E818C8327
:100630005E816D814F813C812B8189819A8158BB7C
:10064000262F38BB00C046FD252F68BB00C058BB15
:10065000362F28BB00C045FD352F68BB00C058BBF6
:10066000262F38BB00C044FD252F68BB00C058BBF7
:10067000362F28BB00C043FD352F68BB00C058BBD8
:10068000262F38BB00C042FD252F68BB00C058BBD9
:10069000362F28BB00C041FD352F68BB00C058BBBA
:1006A000262F38BB00C040FD252F68BB019758BBE3
:1006B000362F28BB419147FD352F68BB01F64F838C
:1006C0003C832B839A838983789453DF7093D10181
:1006D0006093D00127960FB6F894DEBF0FBECDBF52
:1006E000DF91CF910895CF92DF92EF92FF92CF9357
:1006F000DF936B017C013DDFEB013BDF6C1B7D0B6E
:10070000683E7340A0F0C114D104E104F10439F44F
:10071000DF91CF91FF90EF90DF90CF90089581E02F
:10072000C81AD108E108F108C851DC4FE6CFC1145E
:10073000D104E104F10409F7EBCF2FB7F8946091ED
:10074000B1017091B2018091B3019091B4012FBFBA
:100750000895CF93DF9300D000D0CDB7DEB7698383
:100760007A838B839C83DE011196CE010596ED91F1
:10077000F0E0E958FE4F44919D0121503109F90103
:1007800040838A179B0799F769817A818B819C81C5
:100790000F900F900F900F90DF91CF9108958CE004
:1007A00087B962E070E080E090E09DDF369A36998C
:1007B000FECF84B125B1322F282F50E040E064EB0A
:1007C0007BE281E190E0C4D9C9010895CF93DF9322
:1007D000EC016883B2DF2881398121111DC03323E8
:1007E00089F04F815885FB01E41BF50B759750F09C
:1007F0007E836D8319861A8631E03C831B861C86B6
:100800001B821A824D815E81641B750B683E83E0FA
:10081000780760F580E026C0311111C04D815E81FE
:10082000FB01E41BF50B759750F03985311107C0BA
:1008300078876F838B81811104C081E08A8380E097
:1008400004C01B821A821C8282E09A81992351F093
:100850009B81911107C09C81992321F0823011F076
:100860001A8281E02983DF91CF9108958B858111D0
:1008700011C081E08A8789871B821A828B8783E077
:10088000683B7B4078F39C859111ECCF81E08C87AD
:1008900084E0E8CF80E0F4CFE8ECF1E043815481DC
:1008A00070E060E086819781E4C9F6DF88DE87B377
:1008B000837F87BBC39AC29837988BB780628BBF00
:1008C00085B3836085BB85B7877E806185BF85B72B
:1008D000806285BF7894889591E68091BD018823D8
:1008E00071F0A89591BD789488958091BD01882379
:1008F00031F08091BD0181508093BD01EECF85B76D
:100900008F7D85BF15BA8BB78F7D8BBF87B38C600A
:1009100087BBC29A379A08954F925F926F927F92E7
:100920008F929F92AF92BF92CF92DF92EF92FF92FF
:1009300004DF6B018090C90180911001882361F16F
:1009400010921001D0924901C0924801D092470103
:10095000C092460110924501412C512C3201539412
:1009600071D8A3019201F4D8609344016BD8A3011C
:100970009201EED86093430165D8A3019201E8D8B3
:100980006093420190914401923830F49091430178
:10099000923810F4623820F380914601909147011B
:1009A0009601281B390B2234310508F445C0D0923A
:1009B0004701C092460170DF912CB12CA12C682D0B
:1009C00081149104A104B10421F03CD8A501940143
:1009D000BFD8E62F80914501861789F360934501C2
:1009E0008091C901681740F540914201B0914301DF
:1009F000A09144012091CD01222381F030E08A2F83
:100A000090E0B901ECD8A92F8B2F90E0B901E7D87D
:100A1000B92F842F90E0B901E2D8492F8E2F90E0B2
:100A200063E070E0DCD8E091CE01F091CF01E80FF7
:100A3000F91FB083A18342838091480190914901BD
:100A4000C81AD90A31EAC3163FE0D30630F081E074
:100A50008093C10189E08093BF01FF90EF90DF9008
:100A6000CF90BF90AF909F908F907F906F905F904E
:100A70004F9008954F925F926F927F928F929F92C4
:100A8000AF92BF92CF92DF92EF92FF920F931F939C
:100A9000CF93DF9352DE6B01D091C9018091100199
:100AA000882371F010921001D0924101C092400150
:100AB000C9D722E030E040E050E04AD860933F01DF
:100AC00080913F01882329F1882799278C199D0956
:100AD00062E370E084D88C01812C912C5401C0E039
:100AE0004D2E512C712C612CCD17A9F0C501B401EC
:100AF000A30192012DD8C801820F931FBDDC29DE0E
:100B0000AB01BC018C2F6CDCCF5F8FEFA81AB80A49
:100B1000EBCFC601DDCF8091400190914101C81A11
:100B2000D90A81E7C81687E1D80630F081E08093C2
:100B3000C10189E08093BF01DF91CF911F910F9197
:100B4000FF90EF90DF90CF90BF90AF909F908F90ED
:100B50007F906F905F904F9008956F927F928F92E9
:100B60009F92AF92BF92CF92DF92EF92FF920F933C
:100B70001F93CF93DF93E1DD4B017090C90180910A
:100B80001001882371F01092100190923E01809222
:100B90003D0158D722E030E040E050E0D9D76093E3
:100BA0003C0180913C018823A1F18827992788196D
:100BB000990964E670E030D87B01872D63E020D886
:100BC000682E072D10E0C801880F991F63E070E0C0
:100BD00037D86B01D0E0C0E02C2FC715E0F4C70177
:100BE0008C0F9D1FB80118D840E050E06FEF70E007
:100BF000861558F04FEF50E060E070E08C159D05D1
:100C000024F440E05FEF60E070E0822FE9DB2196A2
:100C1000E3CFC401CECF80913D0190913E01881A6F
:100C2000990A81E7881687E1980630F081E0809381
:100C3000C10189E08093BF01DF91CF911F910F9196
:100C4000FF90EF90DF90CF90BF90AF909F908F90EC
:100C50007F906F9008951F93CF93DF93EC01162F31
:100C600048D7181731F0612FCE01DF91CF911F9136
:100C700048C7DF91CF911F9108952F923F924F92D5
:100C80005F926F927F928F929F92AF92BF92CF921C
:100C9000DF92EF92FF920F931F93CF93DF9300D0D9
:100CA00000D01F92CDB7DEB71A012B01122F082EEC
:100CB000000C990B809765E070E091D76C0127E0FC
:100CC000C20ED11CFE0131964F015C01FCE0AF0E5B
:100CD000B11C7401212F332721950CF43095390173
:100CE000C60107D717FF31C0062C01C0880F0A9430
:100CF000EAF7F7018083FFEFCF1ADF0A2FEFE21A3E
:100D0000F20AAC14BD0461F7002371F171E007FF32
:100D100002C0019570E08A819B812C813D814981CF
:100D200050E0002E000C110B50171106C4F460E0C7
:100D3000772321F0622F9C01942F80E05F5F482F82
:100D4000892F922F232F362FEFCF112391F290E08E
:100D5000012E02C0959587950A94E2F7CACF2C839D
:100D60003D839B838A83498300E034E1D32EF401E1
:100D700091914F0110E028E1C22EC00EBD2CB01A97
:100D8000812F65E023D710FD2BC0FB2DF81B8F2F83
:100D9000E92EF12C90FF03C0B201A10121DBF594F3
:100DA000E7949E2D1F5F153059F701500B3FF9F660
:100DB0000F900F900F900F900F90DF91CF911F9198
:100DC0000F91FF90EF90DF90CF90BF90AF909F90EA
:100DD0008F907F906F905F904F903F902F900895ED
:100DE0002C2D281B822FD4CFCF92DF92EF92FF922F
:100DF0000F93A3DC6B0180911001882339F11092CD
:100E00001001D0926401C0926301C9DC8E3B2AE0DC
:100E1000920708F450C09C012E5B3A402A3F3105EE
:100E200008F44BC02A5F31092436310508F447C065
:100E30008C519C408436910508F043C084E0809337
:100E4000620181E0809361011092600180916301F1
:100E5000909164019601281B390BC9018139914099
:100E600068F080916101D0926401C0926301909119
:100E70006201981741F18F5F809361010DDD8091D0
:100E80006101833009F440C010F5813061F1823096
:100E900099F180916001882341F01092600181E016
:100EA0008093C10189E08093BF010F91FF90EF9083
:100EB000DF90CF90089581E0C2CF82E0C0CF83E081
:100EC000BECF85E0BCCF81E080936001D7CF843076
:100ED00019F18530F1F600E020E040E05FEF60E0DE
:100EE00070E087E207C000E020E040E050E06FEFF4
:100EF00070E083E2C2DECDCF00E020E040E05FEFB3
:100F00006FEF70E084E2F6CF00E020E040E05FEFBA
:100F10006FEF70E085E2EECF00E020E040E05FEFB1
:100F200060E070E086E2E6CFCF92DF92EF92FF9230
:100F30000F93CF93DF93EC0100DC2091100122236B
:100F4000E1F01092100110925F0110925E01109278
:100F50005D0110925C01EE81FF81E491E0935B0101
:100F600070935A016093590128852130A9F52B858A
:100F7000209358012C8520935701209159013091DD
:100F80005A01AB01421B530B288139814217530789
:100F900008F44FC070935A0160935901E0915E01CB
:100FA000EF5FE0935E012E813F81E20FF32FF11D91
:100FB000E491E0935B015885E11119C040915C0117
:100FC0004F5F40935C0151110CC0E9854E1309C07D
:100FD00021E020935F012DC010925801109257011B
:100FE000CCCF10925E01F901249120935B01513026
:100FF00001F5509158014091570120915D012F5FFB
:1010000020935D013A8523130AC010925D013D854E
:10101000350F309358012E85240F209357012091CE
:1010200058012C5F2930A0F6209157012C5F293000
:1010300078F6CA80DB80EC80FD80C114D104E10425
:10104000F10441F4CB016AE070E0C9D515DA81DB27
:101050006B017C0121DC80915B0190EE980F95354E
:1010600038F40091570120915801B701A60105DE1F
:1010700080915F01882341F010925F0181E08093AD
:10108000C10189E08093BF01DF91CF910F91FF9063
:10109000EF90DF90CF90089588ED90E045CF8BEAF8
:1010A00090E042CF8CE990E03FCF8DE890E03CCFDC
:1010B00087EE90E039CF8EE790E036CF8AEB90E074
:1010C00033CF8FE690E030CF89EC90E02DCF80E6F3
:1010D00090E02ACFCF92DF92EF92FF920F93CF93BF
:1010E000DF93EC016A017B0128DB209110012223B0
:1010F000B1F01092100110925601FE01249120933C
:10110000550120E22093540125E0209353011092D1
:101110005201709351016093500110924F01209140
:10112000500130915101AB01421B530B483C51051A
:1011300058F1309153012091550170935101609302
:101140005001311117C020935401E0915601EF5F17
:10115000E0935601EC0FFD2FF11DE491E093550152
:10116000E11103C021E020934F0126E020935301B9
:10117000109252012091530121502093530120914C
:101180005201215020935201C114D104E104F10411
:1011900041F4CB016AE070E022D56ED9DADA6B0156
:1011A0007C017ADB8091550190EE980F953530F4F3
:1011B00000E020915301B701A6015FDD8091540149
:1011C00090EE980F953530F400E020915201B70170
:1011D000A60153DD80914F01882341F010924F0109
:1011E00081E08093C1018BE08093BF01DF91CF91BB
:1011F0000F91FF90EF90DF90CF90089540E050E086
:10120000BA018CE691E066CF40E050E0BA018BE590
:1012100091E060CF40E050E0BA018EE491E05ACF17
:101220004FEF50E0BA0182E491E054CFFF920F9368
:101230001F93CF93DF9304EC11E0C2E0D0E0F801FC
:10124000F1908F01CE0155D4F81619F06F2DCE0113
:1012500058D42196C630D10591F7DF91CF911F91D7
:101260000F91FF900895AF92BF92CF92DF92EF92CD
:10127000FF920F931F93CF93DF935FDA6B018091FF
:101280001001882341F010921001D0924E01C092BB
:101290004D0110924C0180914D0190914E01E6015B
:1012A000C81BD90BBE0190E080E02FEF30E040E09A
:1012B00050E035D428EE33E040E050E049D42054EB
:1012C000E22FF0E0EE5BFF4FE491F0E0EF56FD4FD0
:1012D0001491E2DAA0904A01B0904B01C5019695B5
:1012E00087959695879580559E4F03D490E02A2D3B
:1012F00020952370220F02C0959587952A95E2F7D5
:10130000282F2370612F70E090E080E02230F1F10F
:10131000233009F446C0213099F14427562F672F16
:10132000782F00E020E081E4A8DCC93ED340E8F05B
:101330008FEFA81AB80A80E4A81681E0B806B9F1C0
:10134000B0924B01A0924A01D0924E01C0924D0141
:1013500080914C018F5F80934C01843031F481E0A7
:101360008093C10189E08093BF01DF91CF911F91EC
:101370000F91FF90EF90DF90CF90BF90AF900895C6
:1013800000E020E0AB01BC0183E4CECF20E031E0FF
:1013900041E050E0C4D3AB01BC0100E020E087E4B1
:1013A000C3CF5527442700E020E085E5BDCF10924C
:1013B0004B0110924A01C8CF1F920F920FB60F92A5
:1013C00011242F933F938F939F93AF93BF9380915B
:1013D000B1019091B201A091B301B091B4013091EB
:1013E000B00126E0230F2D3768F129E8230F03967B
:1013F000A11DB11D2093B0018093B1019093B20162
:10140000A093B301B093B4018091B5019091B6015E
:10141000A091B701B091B8010196A11DB11D8093B3
:10142000B5019093B601A093B701B093B801BF91F5
:10143000AF919F918F913F912F910F900FBE0F9081
:101440001F9018950296A11DB11DD4CF1F920F9227
:101450000FB60F9211248F9381B58F7B81BD8F9131
:101460000F900FBE0F901F9018951F920F920FB6FE
:101470000F9211248F9381E08093BE011092BD01E1
:101480008F910F900FBE0F901F90189583E08ABD2B
:1014900083BF789489B7826089BF80E48CBD8FEF69
:1014A0008DBD87EC80BF86E886B980E888B9A49AAC
:1014B00080B58A6080BD81E090E01BD3D82F90E09A
:1014C00080E017D3C82F82E090E013D38093C4014B
:1014D00083E090E00ED38093C50184E090E009D3CF
:1014E0008093C60185E090E004D38093C7018FEF1D
:1014F0008D0F893128F060E181E090E002D3D0E1E6
:10150000C33128F060E090E080E0FBD2C0E047D932
:101510002091C4013091C501BC0162277327821755
:10152000930719F090E080E0DBD28D2F11D8C093A3
:10153000C201BA9AC29A65E070E080E090E0D3D828
:1015400087B38C7F87BB88B3836088BBE091D4016D
:10155000F091D50180819091D601892B8083E09113
:10156000D201F091D30190818091D6018095892399
:10157000808381E08093C80122D889E08093CD01E7
:10158000CC24CA9493E0D92EE12CF12C23E1822EB5
:10159000912CA12CB12C32E0432E512C612C712CBA
:1015A0004CE8242E42E0342ED2E0C1E0F8D88C0181
:1015B000C4D804351B4008F05CC12091BB013091B8
:1015C000BC012115310571F04091B9015091BA016A
:1015D000FA01E21BF30B9F01260F371F3093BA016C
:1015E0002093B9017093BC016093BB018091B90154
:1015F0009091BA01813D974010F14ED914E000E07E
:1016000020E040E050E06FEF70E088E236DBD7D7B3
:1016100066E970E080E090E066D83ED9D0D766E910
:1016200070E080E090E05FD8115049F73ED9109209
:10163000BC011092BB011092BA011092B901D7B946
:1016400087B187B9369A3699FECF64B185B1782FC4
:1016500090E080E02FEF30E040E050E060D2A70162
:10166000960176D2E22FF0E0EF56FD4FE491EF5F66
:10167000E093CD01B09B02C0B19913C08091C40129
:101680009091C501A091C601B091C7010196A11D1D
:10169000B11D8093C4019093C501A093C601B0937E
:1016A000C7018091C101882309F457C01092C1017C
:1016B0008091C0018F5F8093C0018091BF018A300B
:1016C00008F4E0C089508093BD0189E0A895982F67
:1016D000990F990F907287708064892B81BDE5D82E
:1016E0008091C3018130A9F58091BE01811131C083
:1016F000A9D1A50194012CD28091C2018617C1F312
:101700006093C2019FD1A301920122D2662309F402
:10171000BCC08091D40081958093D4008091D60084
:1017200081958093D6008091C50081958093C500F6
:101730008091C70081958093C7008FE792E09093D6
:10174000EE008093ED00E7E7F2E0F093DF00E09336
:10175000DE001092BE01C09310018091C30181117F
:1017600006C08091C001811102C0C093C30166B35D
:10177000617083E091E02AD8082F66B366956170A6
:1017800086EF90E023D8182F8091C301023009F42E
:101790008BC0043009F49CC0013009F0BCC0823019
:1017A000A0F41092C3011092C0018091C20188235D
:1017B00009F476C081508093C201C09310016091FA
:1017C000C20190E080E047DA31DD8091C3018230D0
:1017D00009F0A1C08091C901823010F00FEF080F0D
:1017E0005BD8EDD6802FB4D6123009F4A3C01430E4
:1017F00009F4B0C0113019F58091C3018230A0F412
:101800001092C3011092C0018091C201823108F090
:101810008EC08F5F8093C201C09310016091C2019E
:1018200090E080E018DA02DD8091C301823039F463
:101830008091C901893108F088C08F5F89D6809175
:10184000C301823008F45AC08091C301823009F08C
:10185000ADCED091C901DD2351F0C0E040E050E0B1
:101860006FEF70E08C2FBCD5CF5FDC13F7CFA7D61E
:101870009BCE1092BC011092BB011092BA01109243
:10188000B901B4CE1092BD0121CF3092EE0020926A
:10189000ED0084E892E09093DF008093DE0059CF62
:1018A00092E19093C20189CF8230A9F50091C901DC
:1018B000053060F00450F0D782D6802F49D6123020
:1018C000C9F1143069F1113021F696CF01E0F3CF60
:1018D000823018F4D093C301F2CF823009F042C0B5
:1018E0006091C90181E090E0B6D91092C301123035
:1018F00009F11430A9F0113009F47ECFE091C20152
:10190000F0E0EE0FFF1FEB5EFE4F0190F081E02D47
:10191000099555D699CF123069F0143009F06ACF85
:101920008091C301823098F4D093C30188CF109284
:10193000C20172CF8091C301823009F080CF8091C3
:10194000C901863110F48C5F79CF89E177CF82307D
:1019500009F07ACF6091C90181E090E07CD91092C2
:10196000C3016DCF123031F31430D1F2113009F4CC
:1019700043CF1CCEE8ECF1E0108280E1818389E165
:10198000828380E390E094838383158285E691E0EF
:10199000978386831186108688E390E093878287F9
:1019A00087E390E09587848788E0868708958F9203
:1019B0009F92AF92BF92CF92DF92EF92FF92CF931E
:1019C000DF93EC01688179818A819B8161157105C2
:1019D0008105910521F464E279ED8BE597E02DE135
:1019E00033EF41E050E0B4D049015A0127EA31E435
:1019F00040E050E094D06B017C012CEE34EF4FEFCF
:101A00005FEFC501B4018BD0C60ED71EE81EF91ECC
:101A1000F7FE06C081E0C81AD108E10880E8F80A9C
:101A2000C882D982EA82FB82C701B6019F77DF9123
:101A3000CF91FF90EF90DF90CF90BF90AF909F90AD
:101A40008F9008958F929F92AF92BF92CF92DF9224
:101A5000EF92FF9260911101709112018091130138
:101A600090911401611571058105910521F464E2DD
:101A700079ED8BE597E02DE133EF41E050E068D060
:101A800049015A0127EA31E440E050E048D06B01B7
:101A90007C012CEE34EF4FEF5FEFC501B4013FD076
:101AA000C60ED71EE81EF91EF7FE06C081E0C81A52
:101AB000D108E10880E8F80AC0921101D092120121
:101AC000E0921301F0921401C701B6019F77FF90D5
:101AD000EF90DF90CF90BF90AF909F908F90089540
:101AE000609311017093120180931301909314017C
:101AF0000895E199FECF9FBB8EBBE09A99278DB3E5
:101B00000895262FE199FECF1CBA9FBB8EBB2DBB3B
:101B10000FB6F894E29AE19A0FBE01960895EE2767
:101B2000FF27AA27BB2708C0A20FB31FE41FF51F7A
:101B3000220F331F441F551F9695879577956795FC
:101B400098F37040A9F7009799F7BD01CF01089568
:101B5000052E97FB16F400940FD057FD05D014D036
:101B600007FC02D046F408C0509540953095219569
:101B70003F4F4F4F5F4F08959095809570956195B9
:101B80007F4F8F4F9F4F0895A1E21A2EAA1BBB1BB8
:101B9000FD010DC0AA1FBB1FEE1FFF1FA217B30739
:101BA000E407F50720F0A21BB30BE40BF50B661F4F
:101BB000771F881F991F1A9469F760957095809513
:101BC00090959B01AC01BD01CF010895002480FDDB
:101BD000060E660F11F08695D1F7802D089500242A
:101BE000552704C0080E591F880F991F009729F028
:101BF00076956795B8F37105B9F7802D952F0895FF
:101C0000991B79E004C0991F961708F0961B881F4E
:101C10007A95C9F780950895AA1BBB1B51E107C0AF
:101C2000AA1FBB1FA617B70710F0A61BB70B881F6C
:101C3000991F5A95A9F780959095BC01CD010895FB
:101C400097FB072E16F4009406D077FD08D0E4DF4A
:101C500007FC05D03EF4909581959F4F08957095AF
:101C600061957F4F0895EE0FFF1F0590F491E02DD1
:101C70000994DC0101C06D9341505040E0F7089594
:041C8000F894FFCF06
:101C8400C80000FFFF001E00010002FC0001006408
:101C94000000000000210000010000000000FA0024
:101CA400000000002A0000070000000000FA000005
:101CB4000000002D00000600000000002C01FFFFC2
:101CC400000030000004000000000090010000004B
:101CD40000360000050000000000FA0000FF0000CC
:101CE4003D00010001FC000100FA00FFFF0000407C
:101CF40000010001FC000100960000FFFF008402C7
:101D040000010000000000FA00000000008C020046
:101D140007000000000001010000010000000000B5
:101D240000000001010000010000000000000000AC
:101D34000101000000AD053A058C04330910090ABD
:101D4400090409FE086708640861085E085B08580E
:0C1D540008550852084F084C08F406001F
:00000001FF
